{
  "contractName": "MakerlandTokenSale",
  "abi": [
    {
      "inputs": [
        {
          "internalType": "contract MakerlandToken",
          "name": "_tokenContract",
          "type": "address"
        },
        {
          "internalType": "uint256",
          "name": "_tokenPrice",
          "type": "uint256"
        },
        {
          "internalType": "uint256",
          "name": "_openingTime",
          "type": "uint256"
        },
        {
          "internalType": "uint256",
          "name": "_closingTime",
          "type": "uint256"
        },
        {
          "internalType": "uint256",
          "name": "_tokensToSell",
          "type": "uint256"
        },
        {
          "internalType": "uint256",
          "name": "_minimumTokensToSell",
          "type": "uint256"
        }
      ],
      "stateMutability": "nonpayable",
      "type": "constructor"
    },
    {
      "anonymous": false,
      "inputs": [
        {
          "indexed": false,
          "internalType": "address",
          "name": "_buyer",
          "type": "address"
        },
        {
          "indexed": false,
          "internalType": "uint256",
          "name": "amount",
          "type": "uint256"
        }
      ],
      "name": "Sell",
      "type": "event"
    },
    {
      "inputs": [],
      "name": "closingTime",
      "outputs": [
        {
          "internalType": "uint256",
          "name": "",
          "type": "uint256"
        }
      ],
      "stateMutability": "view",
      "type": "function",
      "constant": true
    },
    {
      "inputs": [],
      "name": "isOpen",
      "outputs": [
        {
          "internalType": "bool",
          "name": "",
          "type": "bool"
        }
      ],
      "stateMutability": "view",
      "type": "function",
      "constant": true
    },
    {
      "inputs": [],
      "name": "minimumTokensToSell",
      "outputs": [
        {
          "internalType": "uint256",
          "name": "",
          "type": "uint256"
        }
      ],
      "stateMutability": "view",
      "type": "function",
      "constant": true
    },
    {
      "inputs": [],
      "name": "openingTime",
      "outputs": [
        {
          "internalType": "uint256",
          "name": "",
          "type": "uint256"
        }
      ],
      "stateMutability": "view",
      "type": "function",
      "constant": true
    },
    {
      "inputs": [],
      "name": "tokenContract",
      "outputs": [
        {
          "internalType": "contract MakerlandToken",
          "name": "",
          "type": "address"
        }
      ],
      "stateMutability": "view",
      "type": "function",
      "constant": true
    },
    {
      "inputs": [],
      "name": "tokenPrice",
      "outputs": [
        {
          "internalType": "uint256",
          "name": "",
          "type": "uint256"
        }
      ],
      "stateMutability": "view",
      "type": "function",
      "constant": true
    },
    {
      "inputs": [],
      "name": "tokensSold",
      "outputs": [
        {
          "internalType": "uint256",
          "name": "",
          "type": "uint256"
        }
      ],
      "stateMutability": "view",
      "type": "function",
      "constant": true
    },
    {
      "inputs": [],
      "name": "tokensToSell",
      "outputs": [
        {
          "internalType": "uint256",
          "name": "",
          "type": "uint256"
        }
      ],
      "stateMutability": "view",
      "type": "function",
      "constant": true
    },
    {
      "inputs": [
        {
          "internalType": "address",
          "name": "account",
          "type": "address"
        }
      ],
      "name": "balanceOf",
      "outputs": [
        {
          "internalType": "uint256",
          "name": "",
          "type": "uint256"
        }
      ],
      "stateMutability": "view",
      "type": "function",
      "constant": true
    },
    {
      "inputs": [
        {
          "internalType": "uint256",
          "name": "_numberOfTokens",
          "type": "uint256"
        }
      ],
      "name": "buyTokens",
      "outputs": [],
      "stateMutability": "payable",
      "type": "function",
      "payable": true
    },
    {
      "inputs": [],
      "name": "hasClosed",
      "outputs": [
        {
          "internalType": "bool",
          "name": "",
          "type": "bool"
        }
      ],
      "stateMutability": "view",
      "type": "function",
      "constant": true
    }
  ],
  "bytecode": "0x608060405260006003553480156200001657600080fd5b5060405162000eee38038062000eee83398181016040528101906200003c91906200024c565b4284101562000082576040517f08c379a0000000000000000000000000000000000000000000000000000000008152600401620000799062000482565b60405180910390fd5b83831015620000c8576040517f08c379a0000000000000000000000000000000000000000000000000000000008152600401620000bf90620004e8565b60405180910390fd5b600081116200010e576040517f08c379a00000000000000000000000000000000000000000000000000000000081526004016200010590620004c6565b60405180910390fd5b80821162000153576040517f08c379a00000000000000000000000000000000000000000000000000000000081526004016200014a90620004a4565b60405180910390fd5b336000806101000a81548173ffffffffffffffffffffffffffffffffffffffff021916908373ffffffffffffffffffffffffffffffffffffffff16021790555085600160006101000a81548173ffffffffffffffffffffffffffffffffffffffff021916908373ffffffffffffffffffffffffffffffffffffffff16021790555084600281905550836006819055508260078190555081600481905550806005819055506001600860006101000a81548160ff021916908315150217905550505050505050620005a1565b6000815190506200022f816200056d565b92915050565b600081519050620002468162000587565b92915050565b60008060008060008060c087890312156200026657600080fd5b60006200027689828a016200021e565b96505060206200028989828a0162000235565b95505060406200029c89828a0162000235565b9450506060620002af89828a0162000235565b9350506080620002c289828a0162000235565b92505060a0620002d589828a0162000235565b9150509295509295509295565b6000620002f1602f836200050a565b91507f6f70656e696e672074696d652069736e27742067726561746572207468616e2060008301527f626c6f636b2074696d657374616d7000000000000000000000000000000000006020830152604082019050919050565b600062000359603a836200050a565b91507f746f6b656e7320746f2073656c6c206d7573742062652067726561746572207460008301527f68616e206d696e696d756d20746f6b656e7320746f2073656c6c0000000000006020830152604082019050919050565b6000620003c1602d836200050a565b91507f6d696e696d756d20746f6b656e7320746f2073656c6c206d757374206265206760008301527f726561746572207468616e2030000000000000000000000000000000000000006020830152604082019050919050565b600062000429602d836200050a565b91507f636c6f73696e672074696d65206973206e6f742067726561746572207468616e60008301527f206f70656e696e672074696d65000000000000000000000000000000000000006020830152604082019050919050565b600060208201905081810360008301526200049d81620002e2565b9050919050565b60006020820190508181036000830152620004bf816200034a565b9050919050565b60006020820190508181036000830152620004e181620003b2565b9050919050565b6000602082019050818103600083015262000503816200041a565b9050919050565b600082825260208201905092915050565b6000620005288262000543565b9050919050565b60006200053c826200051b565b9050919050565b600073ffffffffffffffffffffffffffffffffffffffff82169050919050565b6000819050919050565b62000578816200052f565b81146200058457600080fd5b50565b620005928162000563565b81146200059e57600080fd5b50565b61093d80620005b16000396000f3fe60806040526004361061009c5760003560e01c8063518ab2a811610064578063518ab2a81461016957806355a373d61461019457806370a08231146101bf5780637ff9b596146101fc578063b1af79f414610227578063b7a8807c146102525761009c565b80631515bc2b146100a15780633610724e146100cc5780633d956691146100e857806347535d7b146101135780634b6753bc1461013e575b600080fd5b3480156100ad57600080fd5b506100b661027d565b6040516100c391906106b8565b60405180910390f35b6100e660048036038101906100e19190610584565b610295565b005b3480156100f457600080fd5b506100fd61048b565b60405161010a919061072e565b60405180910390f35b34801561011f57600080fd5b50610128610491565b60405161013591906106b8565b60405180910390f35b34801561014a57600080fd5b506101536104a4565b604051610160919061072e565b60405180910390f35b34801561017557600080fd5b5061017e6104aa565b60405161018b919061072e565b60405180910390f35b3480156101a057600080fd5b506101a96104b0565b6040516101b691906106d3565b60405180910390f35b3480156101cb57600080fd5b506101e660048036038101906101e1919061055b565b6104d6565b6040516101f3919061072e565b60405180910390f35b34801561020857600080fd5b5061021161051f565b60405161021e919061072e565b60405180910390f35b34801561023357600080fd5b5061023c610525565b604051610249919061072e565b60405180910390f35b34801561025e57600080fd5b5061026761052b565b604051610274919061072e565b60405180910390f35b6000600860009054906101000a900460ff1615905090565b8060045410156102da576040517f08c379a00000000000000000000000000000000000000000000000000000000081526004016102d19061070e565b60405180910390fd5b600254816102e891906107b0565b3414610329576040517f08c379a0000000000000000000000000000000000000000000000000000000008152600401610320906106ee565b60405180910390fd5b80600960003373ffffffffffffffffffffffffffffffffffffffff1673ffffffffffffffffffffffffffffffffffffffff1681526020019081526020016000206000828254610378919061075a565b92505081905550600a339080600181540180825580915050600190039060005260206000200160009091909190916101000a81548173ffffffffffffffffffffffffffffffffffffffff021916908373ffffffffffffffffffffffffffffffffffffffff16021790555080600360008282546103f4919061075a565b92505081905550806004600082825461040d919061080a565b92505081905550806005541061043b57806005600082825461042f919061080a565b9250508190555061044f565b60006005541461044e5760006005819055505b5b7f5e5e995ce3133561afceaa51a9a154d5db228cd7525d34df5185582c18d3df09338260405161048092919061068f565b60405180910390a150565b60045481565b600860009054906101000a900460ff1681565b60075481565b60035481565b600160009054906101000a900473ffffffffffffffffffffffffffffffffffffffff1681565b6000600960008373ffffffffffffffffffffffffffffffffffffffff1673ffffffffffffffffffffffffffffffffffffffff168152602001908152602001600020549050919050565b60025481565b60055481565b60065481565b600081359050610540816108d9565b92915050565b600081359050610555816108f0565b92915050565b60006020828403121561056d57600080fd5b600061057b84828501610531565b91505092915050565b60006020828403121561059657600080fd5b60006105a484828501610546565b91505092915050565b6105b68161083e565b82525050565b6105c581610850565b82525050565b6105d481610886565b82525050565b60006105e7601883610749565b91507f45524332303a2077726f6e6720746f6b656e20707269636500000000000000006000830152602082019050919050565b6000610627602283610749565b91507f45524332303a206e6f7420656e6f75676820746f6b656e7320617661696c616260008301527f6c650000000000000000000000000000000000000000000000000000000000006020830152604082019050919050565b6106898161087c565b82525050565b60006040820190506106a460008301856105ad565b6106b16020830184610680565b9392505050565b60006020820190506106cd60008301846105bc565b92915050565b60006020820190506106e860008301846105cb565b92915050565b60006020820190508181036000830152610707816105da565b9050919050565b600060208201905081810360008301526107278161061a565b9050919050565b60006020820190506107436000830184610680565b92915050565b600082825260208201905092915050565b60006107658261087c565b91506107708361087c565b9250827fffffffffffffffffffffffffffffffffffffffffffffffffffffffffffffffff038211156107a5576107a46108aa565b5b828201905092915050565b60006107bb8261087c565b91506107c68361087c565b9250817fffffffffffffffffffffffffffffffffffffffffffffffffffffffffffffffff04831182151516156107ff576107fe6108aa565b5b828202905092915050565b60006108158261087c565b91506108208361087c565b925082821015610833576108326108aa565b5b828203905092915050565b60006108498261085c565b9050919050565b60008115159050919050565b600073ffffffffffffffffffffffffffffffffffffffff82169050919050565b6000819050919050565b600061089182610898565b9050919050565b60006108a38261085c565b9050919050565b7f4e487b7100000000000000000000000000000000000000000000000000000000600052601160045260246000fd5b6108e28161083e565b81146108ed57600080fd5b50565b6108f98161087c565b811461090457600080fd5b5056fea2646970667358221220c32c66c5b2d7b46361d74f186e3e24c58eb9c54b9127b45965e72f384211b16464736f6c63430008000033",
  "immutableReferences": {},
  "source": "pragma solidity ^0.8.0;\r\n\r\nimport \"./MakerlandToken.sol\";\r\n\r\ncontract MakerlandTokenSale {\r\n    address admin;\r\n    MakerlandToken public tokenContract;\r\n    uint256 public tokenPrice;\r\n    uint256 public tokensSold = 0;\r\n    uint256 public tokensToSell;\r\n    uint256 public minimumTokensToSell;\r\n    uint256 public openingTime;\r\n    uint256 public closingTime;\r\n    bool public isOpen;\r\n\r\n    mapping (address => uint256) private investorsBalances;\r\n    address[] investorsAddresses;\r\n\r\n    modifier onlyWhileOpen {\r\n        if (block.timestamp >= openingTime && block.timestamp <= closingTime) {\r\n            _;\r\n        } else {\r\n            endTokenSale();\r\n        }\r\n    }\r\n\r\n    event Sell(address _buyer, uint256 amount);\r\n\r\n    constructor(MakerlandToken _tokenContract, uint256 _tokenPrice, uint256 _openingTime, uint256 _closingTime, uint256 _tokensToSell, uint256 _minimumTokensToSell) {\r\n        require(_openingTime >= block.timestamp, \"opening time isn't greater than block timestamp\");\r\n        require(_closingTime >= _openingTime, \"closing time is not greater than opening time\");\r\n        require(_minimumTokensToSell > 0, \"minimum tokens to sell must be greater than 0\");\r\n        require(_tokensToSell > _minimumTokensToSell, \"tokens to sell must be greater than minimum tokens to sell\");\r\n\r\n        admin = msg.sender;\r\n        tokenContract = _tokenContract;\r\n        tokenPrice = _tokenPrice;\r\n        openingTime = _openingTime;\r\n        closingTime = _closingTime;\r\n        tokensToSell = _tokensToSell;\r\n        minimumTokensToSell = _minimumTokensToSell;\r\n        isOpen = true;\r\n    }\r\n\r\n    function balanceOf(address account) public view virtual returns (uint256) {\r\n        return investorsBalances[account];\r\n    }\r\n\r\n    function endTokenSale() internal virtual {\r\n        if (minimumTokensToSell > 0) {\r\n            for (uint i=0; i<investorsAddresses.length; i++) {\r\n                address addr = investorsAddresses[i];\r\n                uint256 balance = investorsBalances[addr];\r\n                uint256 balanceInWei = balance * tokenPrice;\r\n                (bool sent, bytes memory data) = payable(addr).call{value: balanceInWei - 20317, gas: 20317}(\"\");\r\n                require(sent, \"ERC20: Failed to send Ether\");\r\n            }\r\n        } else if (minimumTokensToSell == 0 && tokensToSell != 0) {\r\n            require(tokenContract.transfer(admin, tokensToSell), \"ERC20: failed to transfer MKL tokens to admin\");\r\n            bool sent = payable(admin).send(address(this).balance);\r\n            require(sent, \"ERC20: Failed to send Ether\");\r\n            for (uint i=0; i<investorsAddresses.length; i++) {\r\n                address addr = investorsAddresses[i];\r\n                uint256 balance = investorsBalances[addr];\r\n                require(tokenContract.transfer(addr, balance), \"ERC20: failed to allocate tokens\");\r\n            }\r\n        } else if (minimumTokensToSell == 0 && tokensToSell == 0) {\r\n            bool sent = payable(admin).send(address(this).balance);\r\n            require(sent, \"ERC20: Failed to send Ether\");\r\n            for (uint i=0; i<investorsAddresses.length; i++) {\r\n                address addr = investorsAddresses[i];\r\n                uint256 balance = investorsBalances[addr];\r\n                require(tokenContract.transfer(addr, balance), \"ERC20: failed to allocate tokens\");\r\n            }\r\n        }\r\n        isOpen = false;\r\n        selfdestruct(payable(admin));\r\n    }\r\n\r\n    function buyTokens(uint256 _numberOfTokens) public payable {\r\n        require(tokensToSell >= _numberOfTokens, \"ERC20: not enough tokens available\");\r\n        require(msg.value == _numberOfTokens * tokenPrice, \"ERC20: wrong token price\");\r\n        investorsBalances[msg.sender] += _numberOfTokens;\r\n        investorsAddresses.push(msg.sender);\r\n        tokensSold += _numberOfTokens;\r\n        tokensToSell -= _numberOfTokens;\r\n        if (minimumTokensToSell >= _numberOfTokens) {\r\n            minimumTokensToSell -= _numberOfTokens;\r\n        } else if (minimumTokensToSell != 0) {\r\n            minimumTokensToSell = 0;\r\n        }\r\n        Sell(msg.sender, _numberOfTokens);\r\n    }\r\n\r\n    function hasClosed() public view returns (bool) {\r\n        return !isOpen;\r\n    }\r\n}",
  "sourcePath": "C:/Users/rforz/desktop/makerland/contracts/MakerlandTokenSale.sol",
  "compiler": {
    "name": "solc",
    "version": "0.8.0+commit.c7dfd78e.Emscripten.clang"
  },
  "schemaVersion": "3.3.4",
  "updatedAt": "2021-04-20T12:50:07.616Z",
  "networkType": "ethereum",
  "devdoc": {
    "kind": "dev",
    "methods": {},
    "version": 1
  },
  "userdoc": {
    "kind": "user",
    "methods": {},
    "version": 1
  }
}